:020000040800F2
:10000000202C002045010008F5300008F7300008DA
:10001000FB300008FF30000803310008000000003A
:100020000000000000000000000000000731000890
:1000300009310008000000000B3100080D310008F4
:100040005F0100085F0100085F0100085F01000810
:100050005F0100085F0100085F0100085F01000800
:100060005F0100085F0100085F0100085F010008F0
:100070005F0100085F0100085F0100085F010008E0
:100080005F0100085F0100085F0100085F010008D0
:100090005F0100085F0100085F0100085F010008C0
:1000A0005F0100085F0100085F0100085F010008B0
:1000B0005F0100085F0100085F0100085F010008A0
:1000C0005F0100085F0100085F0100085F01000890
:1000D0005F0100082F3100085F0100085F01000880
:1000E0005F0100085F0100085F0100085F01000870
:1000F0005F0100085F0100085F0100085F01000860
:100100005F0100085F0100085F0100085F0100084F
:100110005F0100085F0100080F3100085F0100085F
:100120005F0100085F0100085F0100085F0100082F
:10013000DFF80CD004F0C0FC004800475F2F000837
:10014000202C00200648804706480047FEE7FEE7CF
:10015000FEE7FEE7FEE7FEE7FEE7FEE7FEE7FEE777
:1001600047020008310100080CB500200190009002
:100170006C48006840F480306A49086000BF6948F4
:10018000006800F4003000900198401C0190009835
:1001900018B90198B0F5A06FF1D16248006800F479
:1001A000003010B10120009001E000200090009884
:1001B000012843D15C48006840F010005A490860AB
:1001C0000846006820F0030008600846006840F018
:1001D0000200086053484068524948600846406839
:1001E00048600846406840F48060486008464068BF
:1001F00020F47C1048600846406840F4E8104860ED
:100200000846006840F08070086000BF45480068FC
:1002100000F000700028F9D04248406820F0030048
:10022000404948600846406840F00200486000BF0E
:100230003C48406800F00C000828F9D10CBD10B50E
:10024000FFF792FF10BD10B53648006840F001007E
:1002500034490860084640683449084031494860DC
:1002600008460068324908402E4908600846006880
:1002700020F4802008600846406820F4FE004860B2
:100280004FF41F008860FFF7DAFF4FF00060294944
:10029000086010BD10B5002100200022214B5B68D2
:1002A00003F00C0121B1042906D0082928D107E068
:1002B000214B224C236027E01F4B204C236023E07E
:1002C000184B5B6803F47010164B5B6803F48032C4
:1002D000022303EB904022B9194B4343174C236090
:1002E0000DE0104B5B6803F4003323B1144B434320
:1002F000124C236003E0104B4343104C236003E097
:100300000D4B0E4C236000BF00BF064B5B68C3F370
:1003100003130C4CE15C094B1B68CB40074C23607A
:1003200010BD000000100240002002400000FFF855
:10033000FFFFF6FE08ED00E000127A00000000204A
:1003400000093D000400002031490143314A116099
:10035000704770B5002100230F22C47804B32D4CE0
:10036000246804F4E064C4F5E064210AC1F10403E4
:10037000CA40447804FA03F1847814402143090107
:10038000254C0678A155047804F01F050124AC40E3
:1003900005786D11AD0005F1E025C5F8004109E0D3
:1003A000047804F01F050124AC401C4D067876113A
:1003B00045F8264070BD1A4A0A400243154B1B1FE0
:1003C0001A60704739B1134A121D12680243114B6B
:1003D0001B1D1A6006E00F4A121D126882430D4B66
:1003E0001B1D1A607047042808D14FF0E0210969ED
:1003F00041F004014FF0E022116107E04FF0E021ED
:10040000096921F004014FF0E022116170470000FA
:100410000000FA050CED00E000E400E080E100E0FF
:1004200080FFFF1F10B50446FA48844208D101211D
:10043000401500F07FFE0021601500F07BFE17E004
:10044000F548844208D10121001500F073FE002117
:10045000201500F06FFE0BE0F048844208D1012126
:10046000C80300F067FE00214FF4004000F062FE78
:1004700010BD30B50246002000235068E84C2040F3
:100480000D790C6844EA0524204350609068E54CDF
:100490002040D1E902542C434D7944EA45042043DD
:1004A0009060D06A20F470000C7C641EE4B2234398
:1004B00040EA0350D06230BD0021016001714171FA
:1004C0008160C16001210174704721B1826842F0EE
:1004D0000102826003E0826822F0010282607047BC
:1004E00021B1826842F48072826003E0826822F463
:1004F00080728260704710B50023CBB21AB1446895
:100500001C43446002E044689C43446010BD816821
:1005100041F0080181607047014600208A6802F0BE
:1005200008020AB1012000E000207047816841F014
:10053000040181607047014600208A6802F00402CD
:100540000AB1012000E00020704721B1826842F426
:10055000A002826003E0826822F4A00282607047F9
:10056000014600208A6802F480020AB1012000E0FE
:100570000020704710B50A4600210023416821F48D
:100580006041531E41EA4331416010BD21B14268D0
:1005900042F40062426003E0426822F4006242607A
:1005A0007047F0B504460D4600200021092D11DDED
:1005B000E068A5F10A0606EB4607072606FA07F1EA
:1005C0008843A5F10A0606EB460603FA06F108433E
:1005D000E0600CE0206905EB4507072606FA07F105
:1005E000884305EB450603FA06F108432061072A14
:1005F0000FDA606B561E06EB86071F2606FA07F118
:100600008843561E06EB860605FA06F1084360632A
:1006100022E00D2A0FDA206BD61F06EB86071F2675
:1006200006FA07F18843D61F06EB860605FA06F19F
:100630000843206310E0E06AA2F10D0606EB86078E
:100640001F2606FA07F18843A2F10D0606EB86067F
:1006500005FA06F10843E062F0BD21B1826842F478
:100660008012826003E0826822F480128260704708
:100670000146C86C80B2704766484C3000687047CD
:1006800021B1426842F48062426003E0426822F491
:1006900080624260704721B1426842F480524260F9
:1006A00003E0426822F48052426070470A4600210B
:1006B000816821F4E04111438160704721B1826873
:1006C00042F40042826003E0826822F400428260C9
:1006D000704721B1826842F40212826003E08268AE
:1006E00022F4021282607047014600208A6802F4F8
:1006F00000120AB1012000E000207047F0B5044666
:100700001546002000220026092911DDE068A1F12C
:100710000A0707EB470C072707FA0CF29043A1F1F1
:100720000A0707EB470703FA07F21043E0600CE003
:10073000206901EB410C072707FA0CF2904301EB0B
:10074000410703FA07F210432061A06BC0F3015682
:10075000EF1C06F1010CA7EB0C0707EB870C1F271A
:1007600007FA0CF29043EF1C06F1010CA7EB0C0703
:1007700007EB870701FA07F21043A063F0BD10B53D
:100780000A4600210023816B21F44011531E41EAE7
:100790000351816310BD08B5002300930090009BB6
:1007A0000B440093009B1A6008BD08B50246002068
:1007B0000090009201F12800009B184400900098DE
:1007C000006880B208BD0A4600214168164B1940F6
:1007D0001143416070474162826270470A460021BE
:1007E000416821F01F0111434160704740B1094940
:1007F0000831096841F40001064A0832116007E037
:1008000004490831096821F40001024A08321160E4
:10081000704700000024014000280140003C0140D6
:10082000FFFEF0FFFDF7F1FFFFFD3FFF0246002056
:1008300013680B400BB1012000E000207047CA4351
:100840000260704770B502460020002300240B129E
:100850005568CEB205EA060415681D4015B10CB105
:10086000012000E0002070BD00220A12D343036083
:100870007047000001684FF6FE72114001600021D0
:10088000016041608160C1608D49884208D18C4916
:100890000839496841F00F01894A083A51608AE0F5
:1008A00087491431884208D185490839496841F09F
:1008B000F001834A083A51607DE08149283188423D
:1008C00008D17F490839496841F470617C4A083A87
:1008D000516070E07A493C31884208D17849083942
:1008E000496841F47041764A083A516063E07449BE
:1008F0005031884208D172490839496841F4702161
:100900006F4A083A516056E06D496431884208D117
:100910006B490839496841F47001694A083A5160E5
:1009200049E067497831884208D165490839496802
:1009300041F07061624A083A51603CE06149884286
:1009400006D1011F096841F00F01021F116032E05A
:100950005C491431884208D15A49091F096841F09D
:10096000F001584A121F116025E05649283188428B
:1009700008D15449091F096841F47061514A121F96
:10098000116018E04F493C31884208D14D49091F98
:10099000096841F470414B4A121F11600BE049494C
:1009A0005031884207D14749091F096841F4702135
:1009B000444A121F1160704710B50022026847F6C2
:1009C000F0739A430C6A8B6823430C6923434C6988
:1009D00023438C692343CC6923434C6A23438C6AA9
:1009E00023431A430260CB6843600B6883604B6803
:1009F000C36010BD0021016041608160C160016180
:100A000041618161C161016241628162704721B1CE
:100A1000026842F00102026004E002684FF6FE73D1
:100A20001A40026070471AB103680B43036002E08A
:100A300003688B4303607047416070470146486814
:100A400080B2704701460020002201F080531BB1A4
:100A50001C4B083B1A6802E0194B083B1A6802EA73
:100A600001030BB1012000E00020704700F080512D
:100A700019B11449091F086002E01149083948609A
:100A8000704701460020002201F080531BB10D4B3E
:100A9000083B1A6802E00A4B083B1A6802EA0103A5
:100AA0000BB1012000E00020704700F0805119B127
:100AB0000449091F086002E001490839486070478D
:100AC000080002400804024010B50446CC488442A5
:100AD00008D10121042000F02DFB0021042000F0AA
:100AE00029FB46E0C748844208D10121082000F0D4
:100AF00021FB0021082000F01DFB3AE0C24884429F
:100B000008D10121102000F015FB0021102000F079
:100B100011FB2EE0BD48844208D10121202000F0C5
:100B200009FB0021202000F005FB22E0B8488442A8
:100B300008D10121402000F0FDFA0021402000F002
:100B4000F9FA16E0B348844208D10121802000F070
:100B5000F1FA0021802000F0EDFA0AE0AE4884426C
:100B600007D10121801500F0E5FA0021A01500F061
:100B7000E1FA10BD10B50121084600F0DBFA0021B2
:100B8000012000F0D7FA10BD2DE9F0410246002502
:100B90000026002000230024002791F803C00CF059
:100BA0000F0591F803C00CF0100CBCF1000F03D03E
:100BB00091F802C04CEA050591F800C0BCF1000FA5
:100BC00031D0146800202BE04FF0010C0CFA00F338
:100BD000B1F800C00CEA03069E4220D183004FF01A
:100BE0000F0C0CFA03F7BC4305FA03FC4CEA0404AF
:100BF00091F803C0BCF1280F06D14FF0010C0CFA9C
:100C000000FCC2F814C00AE091F803C0BCF1480F20
:100C100005D14FF0010C0CFA00FCC2F810C0401CCA
:100C20000828D1D31460B1F800C0BCF1FF0F34DD47
:100C3000546800202EE000F1080C4FF0010808FA7B
:100C40000CF3B1F800C00CEA03069E4221D18300E8
:100C50004FF00F0C0CFA03F7BC4305FA03FC4CEA07
:100C6000040491F803C0BCF1280F05D100F1080C71
:100C700008FA0CF8C2F8148091F803C0BCF1480FD0
:100C800007D100F1080C4FF0010808FA0CF8C2F87F
:100C90001080401C0828CED35460BDE8F0814FF688
:100CA000FF710180022181700421C17070470246EA
:100CB000002093680B400BB1012000E0002070473A
:100CC0000146886880B2704702460020D3680B4016
:100CD0000BB1012000E0002070470146C86880B2D7
:100CE000704701617047416170470AB1016100E0DE
:100CF00041617047C16070474FF480320A4382619E
:100D00008161826182698269704702460020434B9B
:100D100018684FF68073184040EA021008433F4BB2
:100D2000186070473E49C8617047F0B50A46002315
:100D300000240021002500F00046B6F1004F02D14A
:100D4000364EF16901E0354E7168C0F3034583B258
:100D500000F44016B6F5401F08D121F070612F4E07
:100D6000766826F070662D4F7E6012E000F48016E3
:100D7000B6F5801F06D1032606FA05F4A14341F01B
:100D8000706106E0460D360103FA06F6B14341F004
:100D9000706122B1460D360103FA06F6314300F0C8
:100DA0000046B6F1004F02D11C4EF16101E01B4E2E
:100DB0007160F0BD30B500228B071C0F0F2303FAC2
:100DC00004F2164B08338C1053F824309343134C21
:100DD00008348D1044F8253023468C1053F8243005
:100DE0008C07240F00FA04F423430C4C08348D10B4
:100DF00044F8253030BD0A49DC31086070470000F6
:100E000000080140000C01400010014000140140A6
:100E100000180140001C014000200140000001407A
:100E200000002042DF48006840F00100DD49086012
:100E300008464068DC490840DA49486008460068CE
:100E4000DA490840D74908600846006820F4802045
:100E500008600846406820F4FE0048604FF41F0018
:100E600088607047CF49096821F48031CD4A11600C
:100E70001146096821F480211160B0F5803F03D04C
:100E8000B0F5802F0ED106E0C649096841F48031E3
:100E9000C44A116007E0C349096841F4A021C14A6E
:100EA000116000E000BF00BF704710B5014600228E
:100EB000002300204A11012A02D1BA4C236806E01F
:100EC000022A02D1B74C236A01E0B64C636A01F0F2
:100ED0001F02012494401C400CB1012000E00020BE
:100EE00010BD38B5002000900024002500BF31203F
:100EF000FFF7DBFF05460098401C00900098B0F516
:100F0000A06F01D0002DF2D03120FFF7CEFF08B145
:100F1000012400E00024204638BD01460020A14AFB
:100F2000106820F0F80040EAC10010607047A04946
:100F300008607047024600209A4B586820F47C10E5
:100F400042EA01031843974B586070479849086676
:100F5000704701460020934A506820F00300084380
:100F6000506070478F48406800F00C0070470146A1
:100F700000208C4A506820F0F00008435060704711
:100F800001460020874A506820F4E0600843506022
:100F9000704701460020834A506820F4605040EAC0
:100FA000C1005060704729B17E4A527A02437D4B9E
:100FB0005A7204E07B4A527A82437A4B5A727047E3
:100FC0007B49D8310860704701460020754A506857
:100FD00020F440400843506070470021714A20329D
:100FE0001170704A82F82010012802D004280AD11A
:100FF00004E001216B4A2032117005E00521694AA5
:101000002032117000E000BF00BF704769490860DE
:1010100070476449096A0143624A11627047654931
:1010200044390860704730B50021002200240023B5
:101030005C4D6D6805F00C0121B1042905D008292B
:1010400023D105E05C4D056022E05B4D05601FE0AB
:10105000544D6D6805F47012524D6D6805F480347E
:10106000022505EB92421CB9544D554305600BE037
:101070004C4D6D6805F400351DB1504D554305606C
:1010800002E04D4D5543056002E04B4D056000BF49
:1010900000BF444D6D6805F0F0010909484D6B5CD7
:1010A0000568DD4045603F4D6D6805F4E061090A63
:1010B000434D6B5C4568DD4085603A4D6D6805F4D5
:1010C0006051C90A3E4D6B5C4568DD40C560354DD9
:1010D0006D6805F44041890B3A4D6B5CC568B5FB02
:1010E000F3F5056130BD29B12E4A526902432D4BFB
:1010F0005A6104E02B4A526982432A4B5A61704775
:1011000029B1284A92690243264B9A6104E0254A94
:1011100092698243234B9A61704729B1214AD2696F
:101120000243204BDA6104E01E4AD26982431D4B20
:10113000DA61704729B11B4AD2680243194BDA6061
:1011400004E0184AD2688243164BDA60704729B12E
:10115000144A12690243134B1A6104E0114A1269DE
:101160008243104B1A61704712494039086070473A
:101170000F49C86470470B49C87170470948406AF5
:1011800040F0807007494862704701460020054AD8
:1011900092680A400AB1012000E00020704701492E
:1011A00088727047001002400000FFF8FFFFF6FE53
:1011B000000042428004424200127A0000093D00D1
:1011C000140000202400002010B50446BE488442CC
:1011D00008D101218014FFF7ADFF0021A014FFF713
:1011E000A9FF16E0B948844208D101210014FFF795
:1011F000AEFF00212014FFF7AAFF0AE0B4488442A2
:1012000007D10121C013FFF7A2FF0021E013FFF770
:101210009EFF10BD10B50022028802F441520B88D7
:101220004C8823438C882343CC8823430C89234355
:101230004C8923438C892343CC8923431A4302805E
:10124000838B4FF2FF74234083830B8A038210BD8C
:101250002DE9F04F85B005460C464FF000090227F6
:101260004FF000084FF0010B0026B246A88B4FF25A
:1012700040010840A88302202884B5F81C90A0688B
:10128000022801D100BF38E0A08810B94FF0010B4F
:1012900001E04FF0020B8D48854200D100E000BF15
:1012A0006846FFF7C0FEDDF800A0E088B0F5007FDB
:1012B0000AD14FEA1A2000EB80004000A168B0FB81
:1012C000F1F0401D86B20BE04FEA4B10BAFBF0F094
:1012D00000EB80004000A168B0FBF1F0401D86B239
:1012E0000A20B6FBF0F606F00108A6EB0800C0F3F2
:1012F0004F074FF6FF7000EA0828022F01DBFF2F8F
:1013000002DD02274FF00008E08840EA0800384379
:101310002884A088A189084361880843218808435C
:1013200040F4006040EA0909A5F81C9005B0BDE84A
:10133000F08F0021018041808180C1800181418145
:101340008181C18107210182704700210180418094
:101350008180C1800221816000218181704721B19B
:10136000028842F04002028004E002884FF6BF7318
:101370001A400280704721B1828B42F480628283DE
:1013800004E0828B4FF6FF331A408283704730B5FA
:10139000002400230C110125A540ABB21AB18588A9
:1013A0001D43858002E085889D43858030BD1AB14C
:1013B00083880B43838002E083888B43838070475C
:1013C000818170470146888970474FF6FF629142DC
:1013D00004D0028842F48072028004E002884FF652
:1013E000FF631A400280704721B1828842F00402F4
:1013F000828004E082884FF6FB731A408280704737
:1014000002884FF2FF731A40028002880A4302806A
:101410007047018841F480510180704721B10288F2
:1014200042F40052028004E002884DF6FF731A4035
:101430000280704702460020012901D0108B00E095
:10144000908A70470146088A7047B1F5804F04D1F1
:10145000028842F48042028004E002884BF6FF7367
:101460001A40028070470246002013890B400BB1DE
:10147000012000E000207047CA4302817047F0B5A8
:101480000246002000240023002501F00F0701265A
:10149000BE40B4B20B1101269E40B3B2968806EA54
:1014A00003051689264016B10DB1012000E0002089
:1014B000F0BD10B5002201F00F040123A3409AB241
:1014C000D343038110BD00000030014000380040CC
:1014D000003C004010B50446FE48844208D101217A
:1014E000C014FFF727FE0021E014FFF723FEC4E03D
:1014F000B4F1804F08D101210846FFF728FE0021F2
:101500000120FFF724FEB8E0F348844208D101210E
:101510000220FFF71CFE00210220FFF718FEACE0BE
:10152000EE48844208D101210420FFF710FE00217B
:101530000420FFF70CFEA0E0E948844208D1012115
:101540000820FFF704FE00210820FFF700FE94E0CA
:10155000E448844208D101211020FFF7F8FD002162
:101560001020FFF7F4FD88E0DF48844208D1012114
:101570002020FFF7ECFD00212020FFF7E8FD7CE0B4
:10158000DA48844208D101214014FFF7D3FD00213D
:101590006014FFF7CFFD70E0D548844209D10121E6
:1015A000C804FFF7C7FD00214FF40020FFF7C2FD7C
:1015B00063E0D048844209D101210805FFF7BAFD54
:1015C00000214FF48010FFF7B5FD56E0CA48844271
:1015D00009D101214805FFF7ADFD00214FF40010AE
:1015E000FFF7A8FD49E0C548844208D10121402009
:1015F000FFF7ADFD00214020FFF7A9FD3DE0C04809
:10160000844208D101218020FFF7A1FD0021802024
:10161000FFF79DFD31E0BB48844208D101218015D0
:10162000FFF795FD0021A015FFF791FD25E0B648D5
:10163000844209D101210804FFF77CFD00214FF409
:101640008030FFF777FD18E0B048844209D10121CE
:101650004804FFF76FFD00214FF40030FFF76AFDEB
:101660000BE0AB48844208D101218804FFF762FDFA
:1016700000214FF48020FFF75DFD10BD002202889D
:10168000944B98420ED0994B98420BD0B0F1804FBA
:1016900008D0914B984205D0904B984202D0904B85
:1016A000984204D14FF68F731A404B881A438D4BE2
:1016B000984207D08C4B984204D04FF6FF431A4013
:1016C000CB881A4302808B8883850B880385814BE6
:1016D00098420BD0854B984208D08B4B984205D04E
:1016E0008A4B984202D08A4B984201D10B7A0386EA
:1016F00001238382704770B5002400220023058CEB
:101700004FF6FE7635400584028C8388048B4FF6B5
:101710008F752C40B51E2C400D882C43751E2A4019
:101720000D892A434D882A436A4DA8420BD06F4D3C
:10173000A84208D0744DA84205D0744DA84202D0EA
:10174000734DA84213D14FF6F7752A404D892A43AD
:101750004FF6FB752A408D882A434FF6FF652B40D4
:101760004FF6FF552B408D892B43CD892B4383802A
:101770000483CD888586028470BD70B50024002264
:101780000023058C4FF6EF7635400584028C838864
:10179000048B48F6FF752C404FF6FF452C400D8812
:1017A0004FF6FF7606EA05252C434FF6DF752A40F3
:1017B0000D8906EA05152A434D8806EA05152A43D0
:1017C000444DA84202D0494DA8421DD14FF67F7525
:1017D0002A404D894FF6FF7606EA05152A434FF653
:1017E000BF752A408D8806EA05152A434FF6FF3556
:1017F0002B404FF2FF752B408D8906EA85052B4360
:10180000CD8906EA85052B4383800483CD8805872F
:10181000028470BD70B5002400220023058C4FF6B1
:10182000FF6635400584028C8388848B4FF68F7564
:101830002C404FF6FC752C400D882C434FF6FF557D
:101840002A400D894FF6FF7606EA05252A434D8882
:1018500006EA05252A431F4DA84202D0234DA8427F
:101860001DD14FF2FF752A404D894FF6FF7606EAEB
:1018700005252A434FF6FF352A408D8806EA0525BF
:101880002A434EF6FF752B404DF6FF752B408D8990
:1018900006EA05152B43CD8906EA05152B438380FF
:1018A0008483CD888587028470BD70B500220023B3
:1018B0000024058C4EF6FF7635400584038C848821
:1018C000828B48F6FF752A404FF6FF452A400D8867
:1018D00020E00000002C014000040040000800400F
:1018E000000C004000100040001400400034014093
:1018F000004C0140005001400054014000180040DD
:10190000001C004000200040004001400044014015
:10191000004801404FF6FF7606EA05252A434DF6BA
:10192000FF752B400D8906EA05352B434D8806EAE5
:1019300005352B43FA4DA84202D0FA4DA84208D1F2
:101940004BF6FF752C408D894FF6FF7606EA85151C
:101950002C4384808283CD88A0F84050038470BDDE
:10196000828B4FF2FF331A408283828B4FF6FF73D4
:1019700003EA01231A4382837047F0B50C461546EB
:10198000002200210026078C4EF6FF7C07EA0C0798
:101990000784828B018C4FF6FF7707EA043640F606
:1019A000FF473A404FF6FF7707EA05273A434FF6DD
:1019B000FF7707EA03373A43D94FB8420ED0D94FE1
:1019C000B8420BD0B0F1804F08D0D74FB84205D005
:1019D000D64FB84202D0D64FB84206D14DF6FF7767
:1019E000394046F48057394305E047F6FF57394000
:1019F00044F48057394382830184F0BD828B4FF6D3
:101A0000F3731A408283828B0A4382837047F0B556
:101A10000C461546002200210026078C4FF6FF6C6D
:101A200007EA0C070784828B018C4FF6FF7707EAE1
:101A300004264FF60C773A404FF6FF7707EA031774
:101A40002F433A43B64FB8420ED0B64FB8420BD0F0
:101A5000B0F1804F08D0B44FB84205D0B34FB84270
:101A600002D0B34FB84206D14FF6FF57394046F483
:101A70008077394305E04FF2FF57394044F48077CF
:101A8000394382830184F0BD028B4FF2FF331A4049
:101A90000283028B4FF6FF7303EA01231A4302838A
:101AA0007047F0B50C461546002200210026078C31
:101AB0004FF6EF7C07EA0C070784028B018C4FF688
:101AC000FF7707EA041640F6FF473A404FF6FF77E4
:101AD00007EA03373A434FF6FF7707EA05273A4309
:101AE0008F4FB8420ED08F4FB8420BD0B0F1804F1D
:101AF00008D08D4FB84205D08C4FB84202D08C4FE1
:101B0000B84206D14FF6DF77394046F01007394327
:101B100005E04FF65F77394044F010073943028300
:101B20000184F0BD028B4FF6F3731A400283028BDF
:101B30000A4302837047F0B50C4615460022002187
:101B4000068C4FF6FE773E400684028B018C4FF6E2
:101B50000C7632407E1C06EA03162E433243704E4A
:101B6000B0420ED06F4EB0420BD0B0F1804F08D0D3
:101B70006D4EB04205D06D4EB04202D06C4EB042B8
:101B800006D14FF6FD76314044F00106314305E0C1
:101B90004FF6F576314044F001063143028301846B
:101BA000F0BD70B505460C465D4885420ED05D48D7
:101BB00085420BD0B5F1804F08D05B48854205D0F7
:101BC0005A48854202D05A48854200D100E000BF01
:101BD000208850B92389A28861882846FFF7ABFF87
:101BE000E1882846FFF79EFF25E0208804280AD1D7
:101BF0002389A28861882846FFF753FFE188284699
:101C0000FFF742FF17E0208808280AD12389A2881D
:101C100061882846FFF7FBFEE1882846FFF7EEFEC5
:101C200009E02389A28861882846FFF7A6FEE1889B
:101C30002846FFF795FE70BD2DE9F04105460C469C
:101C400000260127608808B9022600E00026A08847
:101C5000012801D1022700E001272088A0B92389AB
:101C6000A28861882846FFF766FFE1882846FFF7CB
:101C700059FF23893A4631462846FFF712FFE1888B
:101C80002846FFF701FF13E02389A28861882846D0
:101C9000FFF707FFE1882846FFF7F6FE23893A465B
:101CA00031462846FFF747FFE1882846FFF73AFF0D
:101CB000BDE8F0810A884B881A438B881A43CB8889
:101CC0001A430B891A434B891A438B891A43A0F88C
:101CD000442070474FF6FF71818000210180C18050
:101CE0004180017270470021018041808180C18064
:101CF000018141818181C181704700210180418042
:101D0000012181800021C180018170470021018073
:101D100041808180C18001814181818170470000C3
:101D2000002C014000340140000400400008004045
:101D3000000C004021B1028842F00102028004E060
:101D400002884FF6FE731A400280704731B1B0F836
:101D5000442042F40042A0F8442005E0B0F84420BA
:101D6000C2F30E02A0F8442070471AB183890B43D6
:101D7000838102E083898B4383817047818270472E
:101D800041EA0203A0F8483070471AB183890B4337
:101D9000838102E083898B438381704701894FF6F9
:101DA000F8721140018170470A46002101894FF6FF
:101DB0008F73194011430181704730B504460D46B9
:101DC00029462046FFF7F0FF208940F007002081D8
:101DD00030BD2DE9F04104460D4616461F46602DE4
:101DE00006D13B46012231462046FFF75AFE05E068
:101DF0003B46012231462046FFF79DFE29462046FC
:101E0000FFF7D2FF208940F007002081BDE8F08174
:101E100030B50C4600210189C9B24FF6FF7505EABD
:101E20000325154325432943018130BD2DE9F041A8
:101E300005460E4617469846002443463A46314624
:101E40002846FFF7E5FF2C894FF6F870044044F070
:101E500007044FF68F70044044F070042C81BDE8F5
:101E6000F081F0B504460D4616461F463B46324605
:101E700029462046FFF7CCFF208940F4804020818E
:101E8000F0BD0185828270470A46002101884FF625
:101E90008F731940114301807047F0B50C46154609
:101EA0001E460021002200230189028B038C4FF67D
:101EB000F877394021434FF6FC473A4040F201178A
:101EC0003A434FF6DD773B404FF6FF7707EA0617B8
:101ED0002F433B43018102830384F0BD0A46002166
:101EE000018B4FF68F7319401143018370470A46E7
:101EF0000021018B48F6FF7319404FF6FF7303EA88
:101F000002231943018370470A460021818B4FF653
:101F10008F7319401143818370470A460021818BDA
:101F200048F6FF7319404FF6FF7303EA0223194383
:101F30008183704721B1028842F08002028004E070
:101F400002884FF67F731A400280704721B1828861
:101F500042F00402828004E082884FF6FB731A404C
:101F60008280704721B1828842F00802828004E0BA
:101F700082884FF6F7731A408280704721B18288B9
:101F800042F00102828004E082884FF6FE731A401C
:101F9000828070470A460021018B4FF6F773194083
:101FA0001143018370470A460021018B4FF2FF73F2
:101FB00019404FF6FF7303EA022319430183704768
:101FC0000A460021818B4FF6F77319401143818334
:101FD00070470A460021818B4FF2FF7319404FF67C
:101FE000FF7303EA02231943818370470A460021E5
:101FF000018B4FF6FB7319401143018370470A466A
:102000000021018B4FF6FF3319404FF6FF7303EAAF
:1020100002231943018370470A460021818B4FF642
:10202000FB7319401143818370470A460021818B5D
:102030004FF6FF3319404FF6FF7303EA02231943AB
:10204000818370470A460021018B4FF67F73194048
:102050001143018370470A460021018BC1F30E0131
:102060004FF6FF7303EA02231943018370470A46C0
:102070000021818B4FF67F73194011438183704794
:102080000A460021818BC1F30E014FF6FF7303EA6C
:1020900002231943818370470A460021018C4FF6C1
:1020A000FD7319401143018470470A460021018CD9
:1020B0004FF6F77319401143018470470A46002117
:1020C000018C4FF6DF7319404FF6FF7303EA0213DA
:1020D0001943018470470A460021018C4FF67F7333
:1020E00019404FF6FF7303EA021319430184704746
:1020F0000A460021018C4FF6FF5319404FF6FF733B
:1021000003EA02231943018470470A460021018C27
:102110004FF2FF7319404FF6FF7303EA022319438E
:10212000018470470A460021018C4DF6FF73194067
:102130004FF6FF7303EA023319430184704730B549
:10214000002301248C40A3B2048C9C430484048C9F
:1021500002FA01F5ADB22C43048430BD30B5002342
:1021600004248C40A3B2048C9C430484048C02FAA3
:1021700001F5ADB22C43048430BD70B50346002098
:1021800000241846183001258D40ACB21D8CA543A3
:102190001D8409B1082909D100EB6100056825F00B
:1021A000700505600568154305600EE00D1FC5F359
:1021B0004E052844056825F4E045056005684FF69E
:1021C000FF7606EA02263543056070BD21B102881C
:1021D00042F00202028004E002884FF6FD731A40CA
:1021E0000280704721B1028842F00402028004E0BC
:1021F00002884FF6FB731A400280704721B1828833
:1022000042F08002828004E082884FF67F731A4099
:102210008280704702884FF6F7731A400280028866
:102220000A430280704782884FF68F731A4082807B
:1022300082880A438280704702894FF6F8731A40F9
:10224000028102890A430281704702894FF67F7337
:102250001A40028102890A430281704781847047D3
:1022600081857047818670470187704781877047F5
:10227000A0F84010704702884FF6FF431A400280D2
:1022800002880A43028070470146888E70470146E3
:10229000088F70470146888F70470146B1F84000AB
:1022A00070470146888C70470146088D704702468A
:1022B0000020138A0B400BB1012000E00020704782
:1022C000CA430282704730B5024600200023002432
:1022D000158A05EA0103958905EA010413B10CB1D9
:1022E000012000E0002030BDCA4302827047000098
:1022F00010B50446FB48844209D101218803FEF74A
:1023000019FF00214FF48040FEF714FF32E0F64839
:10231000844209D101214804FEF719FF00214FF43E
:102320000030FEF714FF25E0F048844209D1012176
:102330008804FEF70CFF00214FF48020FEF707FF12
:1023400018E0EB48844209D10121C804FEF7FFFEE2
:1023500000214FF40020FEF7FAFE0BE0E54884422E
:1023600008D101210805FEF7F2FE00214FF480108C
:10237000FEF7EDFE10BD2DE9F04786B005460E468E
:102380000024A24600BFA1460027B08900B100BFCB
:102390002F462C8A4CF6FF700440F08804432C82B0
:1023A000AC894EF6F3100440B08831890843718936
:1023B00008430443AC81AC8A4FF6FF400440B08927
:1023C0000443AC8201A8FEF72EFEC648874202D124
:1023D000DDF810A001E0DDF80CA0A88900F40040B1
:1023E00040B10AEBCA0000EB0A1031684900B0FBAB
:1023F000F1F807E00AEBCA0000EB0A103168890027
:10240000B0FBF1F86420B8FBF0F00401200964216E
:1024100001FB1089A88900F4004040B1322000EB94
:10242000C900B0FBF1F000F00700044308E03220DF
:1024300000EB09106421B0FBF1F000F00F00044341
:102440002C8106B0BDE8F0874FF4165101600021E1
:102450008180C18001810C214181002181817047EF
:1024600010B502460020108A4FF2FF0318400B8877
:102470004C8823438C882343CC8823431843108201
:1024800010BD0021018041808180C180704721B151
:10249000828942F40052828104E082894DF6FF7302
:1024A0001A4082817047F0B50346002400260025BB
:1024B000002040F66A17B94200D100BF1846C1F3A8
:1024C000421401F01F06012707FA06F5012C01D17D
:1024D0000C3004E0022C01D1103000E014301AB1AD
:1024E00007682F43076002E00768AF430760F0BD4D
:1024F0001AB1838A0B43838202E0838A8B438382EF
:102500007047028A4FF6F0731A400282028A0A4329
:102510000282704782894FF2FF731A40828182895A
:102520000A438281704721B1828942F0020282818E
:1025300004E082894FF6FD731A4082817047028A57
:102540004FF6DF731A400282028A0A430282704702
:1025500021B1028A42F48042028204E0028A4BF6F0
:10256000FF731A4002827047C1F3080282807047ED
:1025700001468888C0F308007047818941F0010155
:1025800081817047028BD2B20283028B42EA012220
:1025900002837047028B02F47F420283028B0A435C
:1025A0000283704721B1828A42F02002828204E0D5
:1025B000828A4FF6DF731A408282704721B1828A85
:1025C00042F01002828204E0828A4FF6EF731A40D2
:1025D0008282704721B1828A42F00802828204E03E
:1025E000828A4FF6F7731A408282704721B182893E
:1025F00042F40042828103E08289C2F30E028281AA
:10260000704721B1828A42F40062828204E0828AA9
:102610004FF2FF731A4082827047828A4FF6FB7333
:102620001A408282828A0A438282704721B1828A5A
:1026300042F00202828204E0828A4FF6FD731A4061
:102640008282704702460020B1F5007F00D100BFB2
:1026500013880B400BB1012000E00020704701F40B
:102660000072B2F5007F00D100BFCA4302807047FC
:1026700070B50246002400230025002040F66A16AB
:10268000B14200D100BFC1F3421501F01F03012682
:1026900006FA03F3012D02D19689334006E0022D9C
:1026A00002D1168A334001E0968A33400C1201268B
:1026B00006FA04F41688344013B10CB1012000E08E
:1026C000002070BD10B50022002340F66A14A1421C
:1026D00000D100BF0A1201249440A3B2DC4304805D
:1026E00010BD000000380140004400400048004098
:1026F000004C00400050004000E0401E0028FCD18B
:10270000704710B5F6480068F6490870F64800783A
:1027100018B9F6A002F00EFA31E0FCA002F00AFAB5
:10272000F14800788200FE49002001F037FD0020CA
:10273000FC4908701CE0FA4CFA480078401C205C08
:10274000831EF8480078801C225CF6480078C01C84
:10275000215CF5A002F0EEF92046F24A1278815C85
:10276000F7A002F0E7F9EF480078001DED49087086
:10277000DD4800788000EB4909788842DBDCD948E5
:102780000078D749086010BD10B5F14800782828B6
:1027900078DAF048F0490968405C282872DB0020AC
:1027A000EE4908700A20FFF7A7FF0120EA490860F8
:1027B00018E00A20FFF7A0FFE648E7490968405CF7
:1027C000E6490978884202DAE448007803E0E14803
:1027D000E1490968405CE1490870DF480068401C35
:1027E000DD490860DC480168DD480078401C814212
:1027F000DFDB0020D8490860D649D74A12688854E0
:10280000B94800788006000EC64908701FE0D3481A
:102810000078D449C34A12788854D3480178D14A01
:10282000C0480078401C1154D0480278CD49BD48BA
:102830000078801C0A54CE480178CA4AB94800780A
:10284000C01C1154B7480078401CB6490870A6480F
:1028500000788000401CB34909788842D7DCA24840
:102860000078401CA04908700A461278521EBD4BE1
:10287000042404FB02319C4A1278521E9000224626
:1028800001F0E6FC10BD10B5BA480068042814DB5E
:10289000B948B8490968435C4FF478422021412087
:1028A00000F0FFFFB448B5490968435C4FF4784233
:1028B0002021492000F0F5FF11E0AF48AD4909683B
:1028C000435C1F222021412000F0EBFFAA48AB49C6
:1028D0000968435C1F222021492000F0E2FFA8483C
:1028E00000789B490870A648008828280EDB9A4883
:1028F0000068401C98490860A14800789549964AAC
:1029000012688854944800789549087010BD10B535
:1029100095480068401C94490860084600683C28B7
:102920007ED100200860944803781F22382171204E
:1029300000F0B7FF904803781F223821792000F07B
:10294000B0FF8A480068401C884908600846006853
:102950003C2852D100200860874803781F22382184
:10296000592000F09EFF844803781F2238216120FF
:1029700000F097FF7E480068401C7D4908600846CB
:102980000068182810D1002008607B4803781F22B7
:102990003821412000F085FF774803781F22382135
:1029A000492000F07EFF7BE0714800680A2190FB1F
:1029B000F1F201FB1200734908706D4800680A21AA
:1029C00090FBF1F07049087010231A46382141201D
:1029D00001F069FA68486C490978435C1F22382184
:1029E000412000F05EFF644866490978435C1F227D
:1029F0003821492000F055FF52E05C4800680A2168
:102A000090FBF1F201FB12005E4908705748006824
:102A10000A2190FBF1F05C49087010231A4600E08F
:102A200016E03821592001F03EFA534856490978FA
:102A3000435C1F223821592000F033FF4E48514992
:102A40000978435C1F223821612000F02AFF27E02B
:102A5000454800680A2190FBF1F201FB1200494948
:102A60000870414800680A2190FBF1F0464908705F
:102A700010231A463821712001F015FA3E484249C8
:102A80000978435C1F223821712000F00AFF3A4880
:102A90003C490978435C1F223821792000F001FF6E
:102AA00010BD2DE9F04F87B000200D4908601023BC
:102AB0001A462021412001F0F6F93448C06880F020
:102AC00008003249C860FFF722FF274800783049E4
:102AD000087026480078487025480078887059E0CA
:102AE0004000002063000020590000200D0ACEC2E3
:102AF000B6C8C3BBD3D0B3ACB9FD3430A1E6B5C4BE
:102B0000CAB1BCE4BCC7C2BC0D0A00000D0ACEC2EB
:102B1000B6C8BCC7C2BCCAB1BCE4B1ED0D0A000066
:102B200068170020580000200D0ACAB1BCE43A25FD
:102B30003032642D253032642D253032640D0A0088
:102B4000CEC2B6C83A253264A1E60D0A00000000E4
:102B500060000020682700205C0000206100002049
:102B600062000020680700203800002034000020A8
:102B700030000020540000204400002050000020BD
:102B80002C0000203C0000203D00002000100140EF
:102B900069000020F8480078C8700422002001F085
:102BA000DAFBF648008801F0BDFE80464FF0663241
:102BB000F34B01F0D6FD0022F24BCDE9000101F00C
:102BC00042FE0646F04AF14B01F0C8FD04460022E1
:102BD000EF4B01F0C6FDEF4AEF4BCDE9020101F0EA
:102BE00032FE82460022ED4B01F014FDCDE90401D6
:102BF00001F0A5FEEA490880084600880A2190FBFA
:102C0000F1F0E8490860E64800880A2190FBF1F2FB
:102C100001FB1200E449086007B0BDE8F08F10B571
:102C20000446E2480078205C022804D003280DD036
:102C3000042871D13DE0DD480078401C205CDC496F
:102C400008600020D9490978605465E0D7480078C9
:102C5000401C205CD74908600020D44909786054A2
:102C6000D44800680A2190FBF1F201FB1200D2491E
:102C70000870D04800680A2190FBF1F0CF49087035
:102C800010231A463821592001F00DF9CC48CB49C0
:102C90000978435C1F223821592000F002FEC84801
:102CA000C5490978435C1F223821612000F0F9FDF5
:102CB00032E0BE480078401C205CC2490860002019
:102CC000BA4909786054BF4800680A2190FBF1F2C4
:102CD00001FB1200B8490870BA4800680A2190FB4D
:102CE000F1F0B649087010231A463821412001F04E
:102CF000DAF8B348B1490978435C1F2238214120F2
:102D000000F0CFFDAE48AC490978435C1F22382162
:102D1000492000F0C6FD00BF00BF10BD10B5042261
:102D2000A949002001F057FBA7480078A049086096
:102D3000084600680A2190FBF1F201FB12009E494F
:102D400008709B4800680A2190FBF1F09B490870CD
:102D50009B480978435C1F223821712000F0A1FDB7
:102D6000974895490978435C1F223821792000F063
:102D700098FD954840788F490860084600680A2108
:102D800090FBF1F201FB12008B4908708948006842
:102D90000A2190FBF1F08949087010231A46382166
:102DA000592001F080F8864884490978435C1F2245
:102DB0003821592000F075FD81487F490978435C2E
:102DC0001F223821612000F06CFD7F4880787D490A
:102DD0000860084600680A2190FBF1F201FB12002E
:102DE00075490870774800680A2190FBF1F0734933
:102DF000087010231A463821412001F054F8704819
:102E00006E490978435C1F223821412000F049FDBA
:102E10006B4869490978435C1F223821492000F03A
:102E200040FD6948C078544908700020674908602F
:102E300010BD10B50020634908605E4908605C4918
:102E40000860604800680A2190FBF1F201FB120063
:102E5000594908705B4800680A2190FBF1F0574916
:102E6000087057480978435C1F223821412000F040
:102E700018FD534850490978435C1F2238214920E6
:102E800000F00FFD4B4800680A2190FBF1F201FBB6
:102E9000120049490870474800680A2190FBF1F088
:102EA0004649087046480978435C1F22382159205A
:102EB00000F0F7FC424840490978435C1F22382162
:102EC000612000F0EEFC3A4800680A2190FBF1F224
:102ED00001FB120038490870354800680A2190FB50
:102EE000F1F03649087036480978435C1F223821D2
:102EF000712000F0D6FC32482F490978435C1F222C
:102F00003821792000F0CDFC10BD10B500F09AFA00
:102F100000F0EBFA00F0F2FA00F0A5FB00F0C5FBC0
:102F200001F01DF84FF6FF70FFF7E6FB4FF4A073BA
:102F3000F0220021084600F0B6FFFF20FFF7DCFB7F
:102F400000F0DAFCFF20FFF7D7FBFFF772FFFF204E
:102F5000FFF7D2FB01F02EF801F07EFA10BD002041
:102F60001B490870FFF7D1FF04211A48FDF7BBFE8B
:102F7000FFF7D4FE9DE000005900002088000020EB
:102F800066660A400000B04085EB51B81E850540DA
:102F900000408F409A9999999999224000003940B0
:102FA0002C00002054000020500000206800002069
:102FB00038000020340000203C0000203D000020AC
:102FC00044000020300000206D0000204000002060
:102FD00060000020001001400121364800F0A9FAED
:102FE000012823D13448007800B333480078012801
:102FF0001CD032480078012818D131480068314986
:1030000008702D48FFF70BFE2FA001F093FD002064
:103010002A49087000BF0121264800F08AFA0128D9
:10302000F9D0284800782649086014E00121214899
:1030300000F07FFA01280ED121480068214908706C
:1030400000BF01211B4800F074FA0128F9D01D4887
:1030500000781B4908604FF400511F4800F069FADE
:10306000012810D11648006816490870002001F0A8
:1030700076F800201949087019A001F05BFD11488D
:1030800000780F4908600E480068B0F57A7F03D1D8
:10309000FFF707FDFFF7F7FBFFF776FB0648007821
:1030A000012806D1FFF72DFB00200349104A1278B2
:1030B000885491E700080140F42700208600002092
:1030C00040000020630000200D0AD0DEB8C4B3C960
:1030D000B9A60D0A000000000010014059000020B0
:1030E0000D0AD2D1B2C1B3FD466C6173680D0A00FE
:1030F00068000020704700BFFEE700BFFEE700BF8A
:10310000FEE700BFFEE7704770477047704710B595
:1031100001218E48FFF7D7F840B18D480068401C68
:103120008B49086001218948FFF7DEF810BD10B512
:1031300040F225518748FFF79BFA00287ED085484A
:10314000FFF716FA8449087084480078012876D180
:1031500083480078E0B9084600788249087008463C
:103160000078814908607F48007828286FDB0020BC
:103170007E4908707E49087078490870794908705E
:10318000774908707B4908607BA001F0D3FC5EE0C2
:103190007348017873480078401C81421ED1714801
:1031A0000078C0437B4908706B48007809788842F2
:1031B00003D101206D49087049E000206B49087077
:1031C0006B49087065490870664908706449087061
:1031D0006849086070A001F0ADFC38E060480178F3
:1031E00060480078801C81422AD15B480078EF2833
:1031F0000FD15E48007801280BD100205B49087090
:1032000001205B4908700020544908705449087037
:103210001DE0002056490870504908705049087058
:1032200052490870524908705A490870514908605B
:103230004C4908705EA001F07DFC08E080E00BE0E6
:103240004548017846480078401E5E4A115444487B
:103250000078401C424908703F480078EE2805D1AC
:103260003E48007810B901203C4908704048007879
:10327000012865D100203F4908600CE051483D49D4
:103280000968405C50493B4A1268885439480068D4
:10329000401C38490860374800683249097888423C
:1032A000ECDB49480078012806D0022805D0032825
:1032B00014D0042834D122E032E0434840783C283E
:1032C00008DA4148417841A001F034FC0120464928
:1032D000087002E045A001F02DFC21E03A4840785A
:1032E0003C2808DA3848417848A001F023FC012046
:1032F0003D49087002E03DA001F01CFC10E032489E
:103300004078182808DA3048417847A001F012FCCC
:1033100001203549087002E034A001F00BFC00BF29
:1033200000BF0020124908700C4908700C49087051
:103330000E4908700E49087016490870094908704E
:1033400040F225510348FFF7BDF910BD00100040C1
:103350004000002000380140740000208000002060
:1033600082000020810000207C00002083000020DB
:1033700084000020780000200D0ACAE4C8EBB5C420
:10338000CAFDBEDDB3ACB9FDC1CB3431B8F60D0A10
:1033900000000000850000200D0ACAFDBEDDB3A4B8
:1033A000B6C8B7B4C2EBB2BBCFE0B5C80D0A0000D7
:1033B0000D0AB0FCCEB2B2BBCAC7307865660D0A42
:1033C00000000000CC270020F42700200D0AB0B434
:1033D0006B657931C8B7C8CFD0DEB8C4C3EBCAFDBE
:1033E000CEAA25640D0A0000860000200D0ACAE45A
:1033F000C8EBB5C4CAB1BCE4B2BBB6D4A3ACC7EB8E
:10340000D6D8D0C2CAE4C8EB0D0A00000D0AB0B489
:103410006B657931C8B7C8CFD0DEB8C4B7D6D6D3BC
:10342000CEAA25640D0A00000D0AB0B46B6579318F
:10343000C8B7C8CFD0DEB8C4CAB1D6D3CEAA256427
:103440000D0A000008B501211020FDF759FE0420E7
:10345000ADF8000010208DF8030003208DF8020065
:1034600069460748FDF790FB0820ADF800001020E2
:103470008DF8030069460248FDF786FB08BD000091
:103480000010014008B54FF4E060FCF75DFF362006
:103490008DF8000000208DF8010003208DF8020057
:1034A00001208DF803006846FCF753FF08BD0EB5F8
:1034B00001211020FDF731FE40F2E730ADF80400A5
:1034C0004720ADF8000069460B48FEF7D7F8012108
:1034D0000948FEF7F5FE012211460748FEF745FCB4
:1034E00001210548FEF726FC0EBD10B5FFF7CAFF07
:1034F000FFF7DDFF10BD00000010004008B50121FE
:103500001420FDF7FDFD0120ADF8000004208DF82A
:10351000030069461148FDF737FB4FF40050ADF842
:10352000000004208DF8030069460D48FDF72CFBD0
:1035300008BD70B504460D4629462046FDF7B7FB89
:10354000012808D100BF29462046FDF7B0FB01281D
:10355000F9D0012070BD0020FCE700000008014008
:103560000010014008B501211020FDF7C9FD012020
:10357000ADF8000000208DF8030069463D48FDF7D6
:1035800003FB08BD00B591B001210846FDF7ABFD76
:1035900001214802FDF7B4FD3748FDF76BF93748C4
:1035A00006903748079000200890012009900020DD
:1035B0000A900B904FF480700C9080000D902020AA
:1035C0000E9000020F900020109006A92A48FDF7E7
:1035D000F3F901212848FDF71AFA002001908DF82F
:1035E000080001208DF809004FF4602003900020AE
:1035F000049001208DF8140001A920484C38FCF7F4
:1036000038FF4FF44040FDF7DFFC052301220A217B
:103610001A484C38FCF7C5FF012118484C38FCF714
:103620005FFF012115484C38FCF74FFF13484C3819
:10363000FCF76DFF00BF11484C38FCF76DFF002808
:10364000F9D10E484C38FCF771FF00BF0B484C38DD
:10365000FCF771FF0028F9D1012108484C38FCF72C
:1036600074FF11B000BD10B5FFF77CFFFFF78AFFB4
:1036700010BD000000100140080002404C24014031
:103680008800002008B54FF4A060FCF75DFE2520FF
:103690008DF8000001208DF801008DF802008DF8F2
:1036A00003006846FCF755FE08BD00B585B0012152
:1036B0000420FDF725FD01218803FDF721FD4FF4CE
:1036C0000070ADF8100018208DF8130003208DF85D
:1036D000120004A95248FDF757FA4FF48060ADF884
:1036E000100004208DF8130004A94D48FDF74CFA92
:1036F0004FF4E13000900020ADF80400ADF8060072
:10370000ADF80800ADF80C000C20ADF80A006946D1
:103710004448FEF730FEFFF7B5FF012240F2255185
:103720004048FEF7C0FE01213E48FEF7B0FE05B05E
:1037300000BD70B504460D4629462046FEF714FF2D
:1037400000BF80212046FEF77DFF0028F9D070BD24
:103750002DE9F04107460D461646002405E0295D97
:103760003846FFF7E6FF601CC4B2B442F7DB00BF87
:1037700040213846FEF766FF0028F9D0BDE8F08109
:1037800070B506460C46002500BF615D3046FFF768
:10379000D0FF6D1C605D0028F7D100BF402130468E
:1037A000FEF750FF0028F9D070BD2DE9F041054625
:1037B0000C46260AE7B231462846FEF7D5FE00BF82
:1037C00080212846FEF73EFF0028F9D039462846DA
:1037D000FEF7CAFE00BF80212846FEF733FF00280F
:1037E000F9D0BDE8F08170B504460D46E1B20D4850
:1037F000FEF7BAFE00BF80210A48FEF723FF00282B
:10380000F9D0204670BD10B5044600BF2021054800
:10381000FEF718FF0028F9D00248FEF7A9FE10BDF8
:1038200000080140003801402DE9F05F0546884658
:1038300017469946AB4600262FE01FFA8BF5002469
:103840000FE017F81600A04000F0FF0A0AF0800011
:1038500020B14A464146284600F092FB681C85B2DA
:10386000641C082CEDDB002410E07000401C385C68
:10387000A04000F0FF0A0AF0800020B14A4641460D
:10388000284600F07DFB681C85B2641C082CECDB2C
:1038900008F101001FFA80F8761C102ECDDBBDE880
:1038A000F09F2DE9FF5F04460F469846A8F12000DF
:1038B0004FEA0019A3464D4618E00BF0FF0400261E
:1038C0000FE02948405DB04000F0FF0A0AF0800098
:1038D00020B139462046029A00F052FB601CC4B267
:1038E000761C082EEDDB781CC7B26D1C09F11000A8
:1038F000A842E2DCBDE8FF9F10B51F231B4A202130
:103900001920FFF791FF1F23194A20212920FFF7D3
:103910008BFF1F23174A20213920FFF785FF1F2324
:10392000154A20215120FFF77FFF1F23134A38211A
:103930001920FFF779FF1F23114A38212920FFF7AB
:1039400073FF1F230B4A38213920FFF76DFF1F2318
:10395000084A38215120FFF767FF1F23054A382105
:103960006920FFF761FF10BD8A0000207A06002061
:103970009A060020BA060020DA060020FA06002087
:103980001A07002001B502E00098401E0090009840
:103990000028F9D108BD08B501210846FDF7B0FBA4
:1039A0000121FE48FDF7C1F901213820FDF7A8FBF0
:1039B0000121FA48FDF7B9F903208DF80200102023
:1039C0008DF803004FF6FF70ADF800006946F4482B
:1039D000FDF7DAF82020ADF800006946F148FDF760
:1039E000D3F84020ADF800006946EE48FDF7CCF86A
:1039F0001020ADF800006946EA48FDF7C5F88020C0
:103A0000ADF800006946E748FDF7BEF80420ADF8C0
:103A100000006946E448FDF7B7F80421E248FDF7E5
:103A200062F908BD10B504461021DE48FDF75BF9C8
:103A30008021DC48FDF757F92021DA48FDF751F9DC
:103A4000D7480C3004604021D648FDF74CF940219E
:103A5000D448FDF746F91021D248FDF742F910BDD0
:103A600010B504461021CF48FDF73DF98021CD481F
:103A7000FDF737F92021CB48FDF733F9C8480C3062
:103A800004604021C748FDF72EF94021C548FDF7E5
:103A900028F91021C348FDF724F910BD38B50320DB
:103AA0008DF8020048208DF803004FF6FF70ADF846
:103AB00000006946BA48FDF767F81021B948FDF7DC
:103AC00012F98021B748FDF70CF94021B548FDF700
:103AD00008F92021B348FDF706F9B148FDF7F0F8E1
:103AE00004462021AF48FDF7FCF81021AD48FDF752
:103AF000F8F803208DF8020010208DF803004FF62F
:103B0000FF70ADF800006946A548FDF73DF8204676
:103B100038BD10B50024D320FFF784FFFFF7BEFFA8
:103B2000FFF7BCFFFFF7BAFF04464FF6FF7000EA4D
:103B30000424FFF7B3FF0443204610BD10B54FF631
:103B4000FF70FFF71FFFCF20FFF76CFF0020FFF78C
:103B500087FF8120FFF784FF3020FFF781FF4FF6BA
:103B6000FF70FFF70FFFED20FFF75CFF6420FFF70A
:103B700077FF0320FFF774FF1220FFF771FF81200A
:103B8000FFF76EFF4FF6FF70FFF7FCFEE820FFF730
:103B900049FF8520FFF764FF1020FFF761FF7820C1
:103BA000FFF75EFF4FF6FF70FFF7ECFECB20FFF74D
:103BB00039FF3920FFF754FF2C20FFF751FF002079
:103BC000FFF74EFF3420FFF74BFF0220FFF748FFBF
:103BD0004FF6FF70FFF7D6FEF720FFF723FF2020F8
:103BE000FFF73EFF4FF6FF70FFF7CCFEEA20FFF72E
:103BF00019FF0020FFF734FF0020FFF731FF4FF6D9
:103C0000FF70FFF7BFFEB120FFF70CFF0020FFF7AA
:103C100027FF1B20FFF724FF4FF6FF70FFF7B2FED0
:103C2000B620FFF7FFFE0A20FFF71AFFA220FFF7DA
:103C300017FF4FF6FF70FFF7A5FEC020FFF7F2FE5B
:103C40003520FFF70DFF4FF6FF70FFF79BFEC120F9
:103C5000FFF7E8FE1120FFF703FFC520FFF7E2FEA4
:103C60004520FFF7FDFE4520FFF7FAFEC720FFF7CE
:103C7000D9FEA220FFF7F4FEF220FFF7D3FE0020CA
:103C8000FFF7EEFE2620FFF7CDFE0120FFF7E8FE4E
:103C90004FF6FF70FFF776FEE020FFF7C3FE0F2020
:103CA000FFF7DEFE2620FFF7DBFE2420FFF7D8FE1D
:103CB0000B20FFF7D5FE0E20FFF7D2FE0920FFF7FD
:103CC000CFFE5420FFF7CCFEA820FFF7C9FE462008
:103CD000FFF7C6FE0C20FFF7C3FE1720FFF7C0FE5C
:103CE0000920FFF7BDFE0F20FFF7BAFE0720FFF700
:103CF000B7FE0020FFF7B4FEE120FFF793FE00209F
:103D0000FFF7AEFE1920FFF7ABFE1B20FFF7A8FE62
:103D10000420FFF7A5FE1020FFF7A2FE0720FFF703
:103D20009FFE2A20FFF79CFE4720FFF799FE3920CF
:103D3000FFF796FE0320FFF793FE0620FFF790FEA5
:103D40000620FFF78DFE3020FFF78AFE3820FFF7B0
:103D500087FE0F20FFF784FE4FF6FF70FFF712FE7D
:103D60003620FFF75FFEC820FFF77AFE4FF6FF70A0
:103D7000FFF708FE2A20FFF755FE0020FFF770FE30
:103D80000020FFF76DFE0020FFF76AFEEF20FFF72F
:103D900067FE4FF6FF70FFF7F5FD07E00002300009
:103DA000000C014000100140001401402B20FFF7DF
:103DB00039FE0020FFF754FE0020FFF751FE0120DE
:103DC000FFF74EFE3F20FFF74BFE4FF6FF70FFF769
:103DD000D9FD3A20FFF726FE5520FFF741FE1120BE
:103DE000FFF720FE6F48FFF7CDFD4FF6FF70FFF79E
:103DF000C9FD2920FFF716FE10BD10B50446072C9B
:103E000000DD10BD68480470204604EBD0714910F5
:103E1000A4EB410139B9F020644908804FF4A07047
:103E20006349088006E04FF4A07060490880F020E4
:103E30005F4908803620FFF7F5FD082141EA44106C
:103E4000FFF70EFE2A20FFF7EDFD0020FFF708FE2A
:103E50000020FFF705FE55490988491EC1F30720D8
:103E6000FFF7FEFD51490978491EC8B2FFF7F8FD7A
:103E70002B20FFF7D7FD0020FFF7F2FD0020FFF712
:103E8000EFFD4B490988491EC1F30720FFF7E8FD04
:103E900047490978491EC8B2FFF7E2FD2C20FFF719
:103EA000C1FD00BFADE72DE9F04104460D461646C1
:103EB0001F462A20FFF7B6FD200AFFF7D1FDE0B22A
:103EC000FFF7CEFDA119491EC1F30720FFF7C8FD7A
:103ED000A119491EC8B2FFF7C3FD2B20FFF7A2FDB1
:103EE000280AFFF7BDFDE8B2FFF7BAFDE919491E40
:103EF000C1F30720FFF7B4FDE919491EC8B2FFF767
:103F0000AFFD2C20FFF78EFD4FF0000804E00020ED
:103F1000FFF7A6FD08F1010806FB07F04045F6D8BB
:103F2000BDE8F0812DE9F0470746884614461D4656
:103F3000DDF820902B46224641463846FFF7B3FF76
:103F40002C20FFF76FFD002603E04846FFF788FDB1
:103F5000761C04FB05F0B042F7D8BDE8F08708B541
:103F6000FFF719FDFFF7EAFD0620FFF746FF0020E7
:103F70004FF4A073F02201460090FFF7D3FF08BD75
:103F800070B505460E46144601231A4631462846AA
:103F9000FFF789FF2C20FFF745FD2046FFF760FD66
:103FA00070BD0000FCBF02005E0700205A07002021
:103FB0005C07002000B587B001210420FDF7A0F8C0
:103FC00001210803FDF79CF82020ADF81800182007
:103FD0008DF81B0003208DF81A0006A9B648FCF7DF
:103FE000D3FD8020ADF8180006A9B348FCF7CCFD3E
:103FF0004020ADF8180048208DF81B0006A9AE48F7
:10400000FCF7C2FD1020ADF818008DF81B0003204E
:104010008DF81A0006A9A848FCF7B6FD0020ADF8F7
:104020001000ADF80C00ADF80A00ADF81400ADF8C2
:104030000800ADF80400ADF812004FF48270ADF83E
:1040400006004FF40070ADF80E0001A99B48FDF783
:10405000E1F801219948FDF782F907B000BD10B5DC
:104060000446214696A000F065FD002010BD70B505
:10407000044642F210709A4908600AE098480168C4
:104080000068401E964A106019B90120FFF7E7FF4B
:1040900070BD02218948FDF7E6F90028EED02146DF
:1040A0008648FDF78DF942F210708D4908600AE0EC
:1040B0008B4801680068401E894A106019B90220C7
:1040C000FFF7CDFFE4E701217C48FDF7CCF900289C
:1040D000EED07A48FDF776F9C5B22846D8E710B594
:1040E000FF20FFF7C4FF10BD10B510217248FCF788
:1040F000FAFD9F20FFF7BBFFFFF7F1FF0446240204
:10410000FFF7EDFF04432402FFF7E9FF044310210A
:104110006948FCF7E6FD204610BD10B51021664841
:10412000FCF7E1FD0620FFF7A2FF10216248FCF733
:10413000D8FD10BD10B510215F48FCF7D4FD052057
:10414000FFF795FF00BFFFF7CAFF044604F0010028
:104150000028F8D110215848FCF7C3FD10BD10B558
:104160000446FFF7E7FFFFF7D8FF10215248FCF79E
:10417000BAFD2020FFF77BFFC4F30740FFF777FF6E
:10418000C4F30720FFF773FFE0B2FFF770FF1021C1
:104190004948FCF7A6FDFFF7CDFF10BD2DE9F04122
:1041A00004460D46164610214348FCF79CFD0320AB
:1041B000FFF75DFFC4F30740FFF759FFC4F3072083
:1041C000FFF755FFE0B2FFF752FF002704E0FFF7CB
:1041D00086FF28706D1C7F1CB742F8D3102136482B
:1041E000FCF77FFDBDE8F0812DE9F04104460D4666
:1041F0001646B6F5807F04D93AA000F09BFCBDE8D6
:10420000F081FFF797FFFFF788FF10212A48FCF79E
:104210006AFD0220FFF72BFFC4F30740FFF727FFDB
:10422000C4F30720FFF723FFE0B2FFF720FF0027CA
:1042300004E02878FFF71BFF6D1C7F1CB742F8D302
:1042400010211D48FCF74DFDFFF774FF00BFD6E7B6
:104250002DE9F04104460D461746002622E00EB136
:10426000E0B2C8B910211448FCF73BFDFFF762FF2C
:10427000FFF753FF10211048FCF735FD0220FFF730
:10428000F6FEC4F30740FFF7F2FEC4F30720FFF782
:10429000EEFEE0B2FFF7EBFE2878FFF7E8FE6D1CBC
:1042A000641C761CBE42DAD310210348FCF719FDCA
:1042B000FFF740FFBDE8F0810008014000300140F9
:1042C0000D0A53504920BCECB2E2B3ACCAB1A3AC66
:1042D000B4EDCEF3B4FAC2EBA3BA2564000000003B
:1042E000600700200D0A7061676520777269746548
:1042F000BAAFCAFDB2BBC4DCD0B4C8EBB3ACB9FD35
:10430000323536B8F6D7D6BDDA0D0A0070B5054697
:1043100000F0C3F8284600F030F900F012F908B1B7
:10432000012400E0002400F0FAF800F0CEF8204666
:1043300070BD10B5002407E0601C84B242F210701A
:10434000844201DB012010BDA020FFF7DFFF002821
:10435000F2D100BFF7E72DE9F04104460D461746BC
:10436000002629E036B1E11704EB5171C910A4EB26
:10437000C101A9B900F0A9F8FFF7DBFF00B126E001
:1043800000F08BF8A02000F0F8F800F0DAF800B1A7
:104390001DE0204600F0F1F800F0D3F800B116E07F
:1043A000287800F0EAF800F0CCF800B10FE06D1CBE
:1043B000601CC4B2701C86B2BE42D3DB00F085F82C
:1043C000FFF7B7FF00B102E00120BDE8F08100F087
:1043D0007CF80020F9E72DE9F04107460C46154628
:1043E000FFF7A7FF00B130E000F057F8A02000F081
:1043F000C4F800F0A6F800B127E0384600F0BDF898
:1044000000F09FF800B120E000F047F8A12000F094
:10441000B4F800F096F800B117E000260DE000F0C7
:10442000D7F82070681EB04202D100F078F801E0A1
:1044300000F05DF8641C701C86B2AE42EFDB00BF7A
:1044400000F043F80120BDE8F08100F068F800F0CA
:104450003CF80020F7E7000008B501210420FCF734
:104460004FFE0420ADF8000014208DF80300032057
:104470008DF8020069466648FCF786FB0820ADF817
:10448000000069466248FCF77FFB08BD002001E0A0
:10449000411CC8B20A28FBDB704710B508215C48F4
:1044A000FCF71FFC04215A48FCF71BFCFFF7EEFF4A
:1044B00008215748FCF717FCFFF7E8FF0421544890
:1044C000FCF711FCFFF7E2FF10BD10B508215048C2
:1044D000FCF709FC04214E48FCF703FCFFF7D6FF6C
:1044E00008214B48FCF7FDFBFFF7D0FF10BD10B5CE
:1044F00008214748FCF7F7FB04214548FCF7F1FB8E
:10450000FFF7C4FF04214248FCF7EDFBFFF7BEFFB5
:1045100008213F48FCF7E5FBFFF7B8FF10BD10B5D9
:1045200008213B48FCF7DDFB04213948FCF7D9FBA7
:10453000FFF7ACFF04213648FCF7D5FBFFF7A6FFD9
:1045400010BD10B508213248FCF7CBFB04213048E0
:10455000FCF7C7FBFFF79AFF08212D48FCF7A7FBE4
:10456000012801D1012400E0002404212848FCF79F
:10457000BAFBFFF78BFF204610BD70B5044600253F
:1045800023E004F0800020B108212148FCF7A9FBBA
:1045900003E008211E48FCF7A6FBFFF777FF042184
:1045A0001B48FCF79EFBFFF771FF04211848FCF73E
:1045B0009AFBFFF76BFF072D03D108211448FCF786
:1045C00090FB6006040E681CC5B2082DD9DB70BDD7
:1045D00070B50024002517E06006040E04210C4885
:1045E000FCF77FFBFFF752FF08210948FCF75FFB50
:1045F000012801D1601CC4B204210548FCF773FBFB
:10460000FFF744FF681CC5B2082DE5DB204670BDEE
:10461000000801402DE9FE4F804681EA0300C00FEB
:104620000C46009021F0004123F00045B8EB020059
:10463000A94105D24046214690461C460B460246FB
:1046400023F00040104347D0270DC7F30A00C3F3FF
:104650000A510290401A019040286BDAC3F313000C
:1046600040F4801B0098924620B10023D2EB030A4D
:1046700063EB0B0B01985946C0F14002504600F025
:104680008DF906460D4650465946019A00F0A5F9A7
:1046900010EB08006141002487EA115284EAE773B5
:1046A0001A4340D0009A62B3019A012A4FEA075296
:1046B00015DC001B61EB02014FF0004202EA0752D9
:1046C000CDE90042001C41F5801132462B4600F036
:1046D000A5F903B0BDE8F08F40462146F9E7001B7D
:1046E00061EB0201001C41F5801300185B412018AA
:1046F000A2F5001747EB030140EAD570B6196D41EA
:1047000011E06D084FEA360645EAC0754FEA0752D8
:10471000001B61EB0201001C41F5801149084FEAC2
:1047200030000019514132462B4603B0BDE8F04F2E
:1047300000F065B90098012240000023D0EB02028E
:1047400063EBE073009821464FEAE074B8EB000099
:1047500061EB0401E9E783F000435BE781F000418E
:1047600058E72DE9FE4F81EA030404F0004421F0EC
:10477000004100944FF0000B23F0004350EA010485
:104780005ED052EA03045BD0C3F30A54C1F30A5566
:104790002C44A4F2F3340194A0FB0254C1F313019E
:1047A00041F48011C3F3130343F4801301FB02446B
:1047B00000FB034E840A970A44EA815447EA835770
:1047C000A4FB076802958D0A05FB07854FEA932C29
:1047D00004FB0C542705029D4FEA065847EA16379A
:1047E000B5EB08056EEB070C870E920E47EA8117B2
:1047F00042EA8312A7FB0201B6EB0B0164EB000453
:104800002B0D43EA0C335E1844EB1C50DA4651463C
:10481000E7FB0201C5F313044FEA0B3343EA1453D9
:104820004FEA0432019C43EA0603A4F10C0402940B
:10483000009CCDE900B400F0F1F803B0BDE8F08FC2
:1048400000200146F9E72DE9F04D81EA030404F068
:10485000004B21F0004514464FF0000A23F00041C0
:1048600050EA050220D054EA01021DD0C5F30A57D0
:104870000246C5F31303C1F31300C1F30A5640F413
:10488000801543F48013A7EB0608101BD64608F2E8
:10489000FD3873EB050002D308F1010801E092181E
:1048A0005B41B8F1000F03DA00200146BDE8F08D4E
:1048B00000204FF48011064684460EE0171B73EB70
:1048C000050705D3121B63EB050306434CEA010CF5
:1048D00049084FEA300092185B4150EA0107EDD1D8
:1048E00052EA030012D082EA040083EA0501084379
:1048F00005D0101BAB4106D20122002306E00022A6
:104900004FF0004302E06FF0010253101AEB060073
:104910004CEB085110EB0A0041EB0B01BDE8F04DE8
:1049200000F06DB80EB540F2334102910021CDE99F
:1049300000110A460B4600F071F803B000BDC1F348
:104940000A5210B5C1F3130140F2FF3341F4801154
:104950009A4201DA002010BD40F233439A42A2F29B
:10496000334203DC524200F028F810BD904010BDE5
:1049700030B50B46014600202022012409E021FA2F
:1049800002F59D4205D303FA02F5491B04FA02F52C
:104990002844151EA2F10102F1DC30BD202A04DBFF
:1049A000203A00FA02F1002070479140C2F1200342
:1049B00020FA03F3194390407047202A04DB203A81
:1049C00021FA02F00021704721FA02F3D040C2F12F
:1049D00020029140084319467047202A06DBCB1776
:1049E000203A41FA02F043EAE07306E041FA02F3AA
:1049F000D040C2F12002914008431946704710B5DB
:104A0000141E73F1000408DA401C41F100019218F1
:104A10005B411A4301D120F0010010BD2DE9F04D9A
:104A200092469B4611B1B1FA81F202E0B0FA80F2EF
:104A300020329046FFF7B2FF04460F4640EA0A00D4
:104A400041EA0B0153465A46084313D0114653EA34
:104A5000010019D0C8F140025046FFF7AEFF0546ED
:104A60000E46504659464246FFF798FF084305D088
:104A7000012004E020463946BDE8F08D00200543C2
:104A800046EAE0762C4337430A986305E40AA0EB34
:104A900008000022FD0A44EA47540A3002D50020EB
:104AA0000146E9E7010510196941DDE908450019EA
:104AB0006941BDE8F04DA2E7064C074D06E0E0680D
:104AC00040F0010394E8070098471034AC42F6D355
:104AD000FBF732FBB84E0008D84E000870B58C18B2
:104AE00010F8015B15F0070301D110F8013B2A1102
:104AF00006D110F8012B03E010F8016B01F8016BEF
:104B00005B1EF9D12B0705D40023521E0DD401F8EA
:104B1000013BFAE710F8013BCB1A921C03E013F8B3
:104B2000015B01F8015B521EF9D5A142D8D30020E8
:104B300070BD00000FB4054B10B503A9044A0298DC
:104B400000F018F810BC5DF814FB0000E73700080F
:104B50006407002002E008C8121F08C1002AFAD129
:104B600070477047002001E001C1121F002AFBD1ED
:104B7000704700002DE9FF4F8BB0884605460026A0
:104B800006E025280BD0DDE90D1290476D1C761C40
:104B900028780028F5D10FB03046BDE8F08F00240A
:104BA000A146A2460122AE4900E0044315F8013FA8
:104BB000203B02FA03F00842F7D128782A2810D0C7
:104BC0006FF02F022878A0F13001092915D809EBE0
:104BD000890102EB410144F0020400EB01096D1C64
:104BE000F0E758F8041B5FEA010903D544F40054C8
:104BF000C9F1000944F002046D1C28782E2817D151
:104C000015F8010F44F004042A280ED06FF02F028B
:104C10002878A0F1300109290AD80AEB8A0102EBB1
:104C2000410100EB010A6D1CF2E758F804AB6D1C62
:104C300028786C280FD006DC4C2817D068280DD0B7
:104C40006A2814D104E0742810D07A280FD10DE01E
:104C500044F400140AE044F4801401E044F44014E5
:104C60006978814202D104F580146D1C6D1C28788E
:104C7000692865D006DC00288DD0632827D06428F9
:104C800006D15DE06E2808D073282AD0752877D029
:104C9000DDE90D129047761CE0E0C4F302500228D3
:104CA00009D003280DD0D8F8001004280DD00E60CC
:104CB00008F10408D2E0D8F80010F217C1E9006248
:104CC000F6E7D8F800100E80F2E70E70F0E718F85B
:104CD000041B8DF8001000208DF80100EB46012028
:104CE00003E058F804BB4FF0FF3061074FF00007B6
:104CF00001D40AE07F1C57450DDA8742FADB1BF826
:104D000007100029F6D106E07F1C8742FCDB1BF868
:104D100007100029F8D1DDE90D23A9EB0700814632
:104D2000214600F0B1F83044C61904E0DDE90D1267
:104D30001BF8010B90477F1EF8D22146484688E0B9
:104D400058F8040BC4F302514FF00A0B032900D1A9
:104D500000B2042900D140B2002802DA40422D21DD
:104D600002E0210505D52B218DF82410012104E056
:104D700006E0E10710D02021F6E708AF089113E024
:104D800058F8040BC4F302514FF00A0B032900D169
:104D900080B2042900D1C0B20021EEE75946FFF7E6
:104DA000E7FD303107F8011D0028F7D1ADEB070012
:104DB00000F1200B600702D524F4803401E04FF0AD
:104DC000010ADA4502DDAAEB0B0000E00020824672
:104DD00000EB0B0108980144A9EB01000A90E003E5
:104DE00006D4DDE90D2321460A9800F04DF806446B
:104DF0004FF0000908E009A911F80900DDE90D12DA
:104E0000904709F10109761C08998945F3DBE00315
:104E10000CD5DDE90D2321460A9800F035F806444B
:104E200004E0DDE90D1230209047761CBAF1000154
:104E3000AAF1010AF5DC05E0DDE90D1217F8010B16
:104E40009047761CBBF10001ABF1010BF4DC0A9832
:104E50002146DDE90D2300F005F806446D1C97E6B8
:104E6000092801002DE9F041044600251E46174699
:104E7000880404D405E039462020B0476D1C641E28
:104E8000F9D52846BDE8F0812DE9F041044600251A
:104E90001E469046C80301D5302700E0202788042D
:104EA00004D505E041463846B0476D1C641EF9D56F
:104EB0002846BDE8F0810000D84E00080000002020
:104EC00068070000DC4A00089C52000868070020C0
:104ED000B8240000644B00081184A24A0468090148
:104EE000020304060708090C6910051C02040608E1
:104EF000000B4F303132333435363738393A1801F8
:104F00001208630818D5342424241C16247F136A3D
:104F10007E16400D083E6848681C1612127C101060
:104F2000700B61D296740810162949C6880A3C6431
:104F30006438724ACE467F60C11E040818103001E2
:104F4000361010180C04180A201008080C04040469
:104F50000C182A2060EE0A341C6A08A3DA7F46295E
:104F600015A308300A113CD8611B02065B5F0810CC
:104F7000102020402B68086642475B734266332D41
:104F800018784808016A7E4B68084606060408102F
:104F900020101A7C0F763C0202067C28090C1C1497
:104FA000246444FF04BD419E7E6060607E206809E9
:104FB0001E30604876424262603A7E8219F569602E
:104FC00068086242361C664242201990CF42661A37
:104FD000020478BB99F0591079F0B00804183060D9
:104FE000100C061A7E02A15808301804060C102076
:104FF0000D171C0606061810631010380D1C2241F0
:1050000041DDB5A5A5AF94C04083680A181C3424BF
:1050100026627E43C1F078084642467C424242D036
:105020002B2040018B603E206E4343434246B03DFF
:105030007E60606004D9106A60406808604040CEBD
:1050400042426240195B2B427E0569304A18016971
:10505000403B7C04016A44606809424448507058EF
:105060004C44305A2001695068096266675F5B5B97
:10507000C1C1C0700A626272525A4A4E464638092D
:105080003C6243C3C3C34362ED49C019BD19D2E9B1
:10509000204B180F2070096662667C6C6466627033
:1050A0000A3E6040601C0602027C5A7FB09A18D00B
:1050B000190179606809C14342622624341C2070BA
:1050C0000AC1C141495B5B766666680A436634186B
:1050D000181C2466C3201B42662D8950600A7E027C
:1050E000040C181020607E8B1C1001321C480C40F0
:1050F0002020101008080C040602BF8A0C01398316
:10510000195C69BB011032FF0311201060083C06D6
:10511000023E42467A2E4040405C62D169F02160F6
:10512000081E20604060203E2D0202023E208B6659
:105130003A405E62427E4060203E0F1810107EAE04
:1051400091280A3F66426658403E4342A079606219
:105150004219F82B78080159F013040C4B7C040118
:10516000330C78580A606060626C78706864D54966
:105170002D8930313B764B0191B96049A02C4342D7
:10518000627DA9201A7C8A6159D019DA611C6E727D
:105190006376926070083E20203C06027C3C101032
:1051A000FEDF921E396E93663A1E4342662434D85F
:1051B000819008C1C15B5A5E66665F62261C181C3E
:1051C00026D06930661C181830E05F7E060C181077
:1051D00020E01B0E186C2B30707223180E69FE49EC
:1051E00001311B3018082B0C0E0E83183074714BD4
:1051F00006101023F81208120883F8420842081318
:10520000F8103E27FCE4A42402232FFE2201280AE2
:10521000803FFE222022203FFC061423E020180CB1
:105220002FF02410422041C08630387001101A300F
:10523000026906211260100A91F4960C6C040804AD
:105240001889021208370C04060801F01208180920
:10525000087C08440845FE4406190A1C8844480294
:105260003914111228131020380A13FC10044004BA
:1052700047C4440189082E4004401440E0113C1802
:105280007848EC727E28093C460606040810201077
:0C52900012F0144001066310270000001B
:0400000508000131BD
:00000001FF
